{
  "address": "0x33f90fdF444bd0d12a8293505115C587Dd8a60ec",
  "abi": [
    {
      "inputs": [
        {
          "internalType": "string",
          "name": "_name",
          "type": "string"
        },
        {
          "internalType": "string",
          "name": "_symbol",
          "type": "string"
        },
        {
          "internalType": "string",
          "name": "baseURI_",
          "type": "string"
        }
      ],
      "stateMutability": "nonpayable",
      "type": "constructor"
    },
    {
      "anonymous": false,
      "inputs": [
        {
          "indexed": true,
          "internalType": "address",
          "name": "owner",
          "type": "address"
        },
        {
          "indexed": true,
          "internalType": "address",
          "name": "approved",
          "type": "address"
        },
        {
          "indexed": true,
          "internalType": "uint256",
          "name": "tokenId",
          "type": "uint256"
        }
      ],
      "name": "Approval",
      "type": "event"
    },
    {
      "anonymous": false,
      "inputs": [
        {
          "indexed": true,
          "internalType": "address",
          "name": "owner",
          "type": "address"
        },
        {
          "indexed": true,
          "internalType": "address",
          "name": "operator",
          "type": "address"
        },
        {
          "indexed": false,
          "internalType": "bool",
          "name": "approved",
          "type": "bool"
        }
      ],
      "name": "ApprovalForAll",
      "type": "event"
    },
    {
      "anonymous": false,
      "inputs": [
        {
          "indexed": true,
          "internalType": "bytes32",
          "name": "role",
          "type": "bytes32"
        },
        {
          "indexed": true,
          "internalType": "bytes32",
          "name": "previousAdminRole",
          "type": "bytes32"
        },
        {
          "indexed": true,
          "internalType": "bytes32",
          "name": "newAdminRole",
          "type": "bytes32"
        }
      ],
      "name": "RoleAdminChanged",
      "type": "event"
    },
    {
      "anonymous": false,
      "inputs": [
        {
          "indexed": true,
          "internalType": "bytes32",
          "name": "role",
          "type": "bytes32"
        },
        {
          "indexed": true,
          "internalType": "address",
          "name": "account",
          "type": "address"
        },
        {
          "indexed": true,
          "internalType": "address",
          "name": "sender",
          "type": "address"
        }
      ],
      "name": "RoleGranted",
      "type": "event"
    },
    {
      "anonymous": false,
      "inputs": [
        {
          "indexed": true,
          "internalType": "bytes32",
          "name": "role",
          "type": "bytes32"
        },
        {
          "indexed": true,
          "internalType": "address",
          "name": "account",
          "type": "address"
        },
        {
          "indexed": true,
          "internalType": "address",
          "name": "sender",
          "type": "address"
        }
      ],
      "name": "RoleRevoked",
      "type": "event"
    },
    {
      "anonymous": false,
      "inputs": [
        {
          "indexed": true,
          "internalType": "address",
          "name": "from",
          "type": "address"
        },
        {
          "indexed": true,
          "internalType": "address",
          "name": "to",
          "type": "address"
        },
        {
          "indexed": true,
          "internalType": "uint256",
          "name": "tokenId",
          "type": "uint256"
        }
      ],
      "name": "Transfer",
      "type": "event"
    },
    {
      "inputs": [],
      "name": "DEFAULT_ADMIN_ROLE",
      "outputs": [
        {
          "internalType": "bytes32",
          "name": "",
          "type": "bytes32"
        }
      ],
      "stateMutability": "view",
      "type": "function"
    },
    {
      "inputs": [],
      "name": "MINTER_ROLE",
      "outputs": [
        {
          "internalType": "bytes32",
          "name": "",
          "type": "bytes32"
        }
      ],
      "stateMutability": "view",
      "type": "function"
    },
    {
      "inputs": [],
      "name": "TOKEN_ADMIN_ROLE",
      "outputs": [
        {
          "internalType": "bytes32",
          "name": "",
          "type": "bytes32"
        }
      ],
      "stateMutability": "view",
      "type": "function"
    },
    {
      "inputs": [
        {
          "internalType": "address",
          "name": "to",
          "type": "address"
        },
        {
          "internalType": "uint256",
          "name": "tokenId",
          "type": "uint256"
        }
      ],
      "name": "approve",
      "outputs": [],
      "stateMutability": "nonpayable",
      "type": "function"
    },
    {
      "inputs": [
        {
          "internalType": "address",
          "name": "owner",
          "type": "address"
        }
      ],
      "name": "balanceOf",
      "outputs": [
        {
          "internalType": "uint256",
          "name": "",
          "type": "uint256"
        }
      ],
      "stateMutability": "view",
      "type": "function"
    },
    {
      "inputs": [
        {
          "internalType": "uint256",
          "name": "tokenId",
          "type": "uint256"
        }
      ],
      "name": "getApproved",
      "outputs": [
        {
          "internalType": "address",
          "name": "",
          "type": "address"
        }
      ],
      "stateMutability": "view",
      "type": "function"
    },
    {
      "inputs": [
        {
          "internalType": "bytes32",
          "name": "role",
          "type": "bytes32"
        }
      ],
      "name": "getRoleAdmin",
      "outputs": [
        {
          "internalType": "bytes32",
          "name": "",
          "type": "bytes32"
        }
      ],
      "stateMutability": "view",
      "type": "function"
    },
    {
      "inputs": [
        {
          "internalType": "bytes32",
          "name": "role",
          "type": "bytes32"
        },
        {
          "internalType": "address",
          "name": "account",
          "type": "address"
        }
      ],
      "name": "grantRole",
      "outputs": [],
      "stateMutability": "nonpayable",
      "type": "function"
    },
    {
      "inputs": [
        {
          "internalType": "bytes32",
          "name": "role",
          "type": "bytes32"
        },
        {
          "internalType": "address",
          "name": "account",
          "type": "address"
        }
      ],
      "name": "hasRole",
      "outputs": [
        {
          "internalType": "bool",
          "name": "",
          "type": "bool"
        }
      ],
      "stateMutability": "view",
      "type": "function"
    },
    {
      "inputs": [
        {
          "internalType": "address",
          "name": "owner",
          "type": "address"
        },
        {
          "internalType": "address",
          "name": "operator",
          "type": "address"
        }
      ],
      "name": "isApprovedForAll",
      "outputs": [
        {
          "internalType": "bool",
          "name": "",
          "type": "bool"
        }
      ],
      "stateMutability": "view",
      "type": "function"
    },
    {
      "inputs": [
        {
          "internalType": "address",
          "name": "owner",
          "type": "address"
        },
        {
          "internalType": "string",
          "name": "metadataURI",
          "type": "string"
        }
      ],
      "name": "mint",
      "outputs": [
        {
          "internalType": "uint256",
          "name": "",
          "type": "uint256"
        }
      ],
      "stateMutability": "nonpayable",
      "type": "function"
    },
    {
      "inputs": [],
      "name": "name",
      "outputs": [
        {
          "internalType": "string",
          "name": "",
          "type": "string"
        }
      ],
      "stateMutability": "view",
      "type": "function"
    },
    {
      "inputs": [
        {
          "internalType": "uint256",
          "name": "tokenId",
          "type": "uint256"
        }
      ],
      "name": "ownerOf",
      "outputs": [
        {
          "internalType": "address",
          "name": "",
          "type": "address"
        }
      ],
      "stateMutability": "view",
      "type": "function"
    },
    {
      "inputs": [
        {
          "internalType": "bytes32",
          "name": "role",
          "type": "bytes32"
        },
        {
          "internalType": "address",
          "name": "account",
          "type": "address"
        }
      ],
      "name": "renounceRole",
      "outputs": [],
      "stateMutability": "nonpayable",
      "type": "function"
    },
    {
      "inputs": [
        {
          "internalType": "bytes32",
          "name": "role",
          "type": "bytes32"
        },
        {
          "internalType": "address",
          "name": "account",
          "type": "address"
        }
      ],
      "name": "revokeRole",
      "outputs": [],
      "stateMutability": "nonpayable",
      "type": "function"
    },
    {
      "inputs": [
        {
          "internalType": "address",
          "name": "from",
          "type": "address"
        },
        {
          "internalType": "address",
          "name": "to",
          "type": "address"
        },
        {
          "internalType": "uint256",
          "name": "tokenId",
          "type": "uint256"
        }
      ],
      "name": "safeTransferFrom",
      "outputs": [],
      "stateMutability": "nonpayable",
      "type": "function"
    },
    {
      "inputs": [
        {
          "internalType": "address",
          "name": "from",
          "type": "address"
        },
        {
          "internalType": "address",
          "name": "to",
          "type": "address"
        },
        {
          "internalType": "uint256",
          "name": "tokenId",
          "type": "uint256"
        },
        {
          "internalType": "bytes",
          "name": "_data",
          "type": "bytes"
        }
      ],
      "name": "safeTransferFrom",
      "outputs": [],
      "stateMutability": "nonpayable",
      "type": "function"
    },
    {
      "inputs": [
        {
          "internalType": "address",
          "name": "operator",
          "type": "address"
        },
        {
          "internalType": "bool",
          "name": "approved",
          "type": "bool"
        }
      ],
      "name": "setApprovalForAll",
      "outputs": [],
      "stateMutability": "nonpayable",
      "type": "function"
    },
    {
      "inputs": [
        {
          "internalType": "string",
          "name": "baseURI_",
          "type": "string"
        }
      ],
      "name": "setBaseURI",
      "outputs": [],
      "stateMutability": "nonpayable",
      "type": "function"
    },
    {
      "inputs": [
        {
          "internalType": "uint256",
          "name": "tokenId",
          "type": "uint256"
        },
        {
          "internalType": "string",
          "name": "newTokenURI",
          "type": "string"
        }
      ],
      "name": "setTokenURI",
      "outputs": [],
      "stateMutability": "nonpayable",
      "type": "function"
    },
    {
      "inputs": [
        {
          "internalType": "bytes4",
          "name": "interfaceId",
          "type": "bytes4"
        }
      ],
      "name": "supportsInterface",
      "outputs": [
        {
          "internalType": "bool",
          "name": "",
          "type": "bool"
        }
      ],
      "stateMutability": "view",
      "type": "function"
    },
    {
      "inputs": [],
      "name": "symbol",
      "outputs": [
        {
          "internalType": "string",
          "name": "",
          "type": "string"
        }
      ],
      "stateMutability": "view",
      "type": "function"
    },
    {
      "inputs": [
        {
          "internalType": "uint256",
          "name": "index",
          "type": "uint256"
        }
      ],
      "name": "tokenByIndex",
      "outputs": [
        {
          "internalType": "uint256",
          "name": "",
          "type": "uint256"
        }
      ],
      "stateMutability": "view",
      "type": "function"
    },
    {
      "inputs": [
        {
          "internalType": "address",
          "name": "owner",
          "type": "address"
        }
      ],
      "name": "tokenIds",
      "outputs": [
        {
          "internalType": "uint256[]",
          "name": "",
          "type": "uint256[]"
        }
      ],
      "stateMutability": "view",
      "type": "function"
    },
    {
      "inputs": [
        {
          "internalType": "address",
          "name": "owner",
          "type": "address"
        },
        {
          "internalType": "uint256",
          "name": "index",
          "type": "uint256"
        }
      ],
      "name": "tokenOfOwnerByIndex",
      "outputs": [
        {
          "internalType": "uint256",
          "name": "",
          "type": "uint256"
        }
      ],
      "stateMutability": "view",
      "type": "function"
    },
    {
      "inputs": [
        {
          "internalType": "uint256",
          "name": "tokenId",
          "type": "uint256"
        }
      ],
      "name": "tokenURI",
      "outputs": [
        {
          "internalType": "string",
          "name": "",
          "type": "string"
        }
      ],
      "stateMutability": "view",
      "type": "function"
    },
    {
      "inputs": [],
      "name": "totalSupply",
      "outputs": [
        {
          "internalType": "uint256",
          "name": "",
          "type": "uint256"
        }
      ],
      "stateMutability": "view",
      "type": "function"
    },
    {
      "inputs": [
        {
          "internalType": "address",
          "name": "from",
          "type": "address"
        },
        {
          "internalType": "address",
          "name": "to",
          "type": "address"
        },
        {
          "internalType": "uint256",
          "name": "tokenId",
          "type": "uint256"
        }
      ],
      "name": "transferFrom",
      "outputs": [],
      "stateMutability": "nonpayable",
      "type": "function"
    }
  ],
  "transactionHash": "0x6344f7a7aa44935d14f6700990269a524476e38167b3592ad35b6bcd691a1a00",
  "args": [
    "0x113eBe4F82EF7C891B306AA5469479dE827AaB1A",
    "0x0CcA58C9299B2C6ffC04b459f53d2dc5d321B475",
    500
  ],
  "solcInputHash": "0a4fd1ba12c7854fe43618c44c5ba561",
  "bytecode": "0x60806040523480156200001157600080fd5b50604051620028c1380380620028c18339810160408190526200003491620002f6565b8251839083906200004d9060019060208501906200019d565b508051620000639060029060208401906200019d565b5062000076915060009050335b620000ed565b620000a27f9f2df0fed2c77648de5860a4cc508cd0818c85b8b8a1ab4ceeef8d981c8956a63362000070565b620000ce7f9e262e26e9d5bf97da5c389e15529a31bb2b13d89967a4f6eab01792567d5fd63362000070565b8051620000e390600c9060208401906200019d565b50505050620003d6565b620000f98282620000fd565b5050565b6000828152602081815260408083206001600160a01b038516845290915290205460ff16620000f9576000828152602081815260408083206001600160a01b03851684529091529020805460ff19166001179055620001593390565b6001600160a01b0316816001600160a01b0316837f2f8788117e7eff1d82e926ec794901d17c78024a50270940304540a733656f0d60405160405180910390a45050565b828054620001ab9062000383565b90600052602060002090601f016020900481019282620001cf57600085556200021a565b82601f10620001ea57805160ff19168380011785556200021a565b828001600101855582156200021a579182015b828111156200021a578251825591602001919060010190620001fd565b50620002289291506200022c565b5090565b5b808211156200022857600081556001016200022d565b600082601f83011262000254578081fd5b81516001600160401b0380821115620002715762000271620003c0565b604051601f8301601f19908116603f011681019082821181831017156200029c576200029c620003c0565b81604052838152602092508683858801011115620002b8578485fd5b8491505b83821015620002db5785820183015181830184015290820190620002bc565b83821115620002ec57848385830101525b9695505050505050565b6000806000606084860312156200030b578283fd5b83516001600160401b038082111562000322578485fd5b620003308783880162000243565b9450602086015191508082111562000346578384fd5b620003548783880162000243565b935060408601519150808211156200036a578283fd5b50620003798682870162000243565b9150509250925092565b600181811c908216806200039857607f821691505b60208210811415620003ba57634e487b7160e01b600052602260045260246000fd5b50919050565b634e487b7160e01b600052604160045260246000fd5b6124db80620003e66000396000f3fe608060405234801561001057600080fd5b50600436106101c45760003560e01c80636352211e116100f9578063c87b56dd11610097578063d547741f11610071578063d547741f146103cf578063d75a9def146103e2578063e985e9c514610409578063fc97a30314610445576101c4565b8063c87b56dd14610382578063d0def52114610395578063d5391393146103a8576101c4565b806395d89b41116100d357806395d89b411461034c578063a217fddf14610354578063a22cb4651461035c578063b88d4fde1461036f576101c4565b80636352211e1461031357806370a082311461032657806391d1485414610339576101c4565b8063248a9ca31161016657806336568abe1161014057806336568abe146102c757806342842e0e146102da5780634f6ccce7146102ed57806355f804b314610300576101c4565b8063248a9ca31461027e5780632f2ff15d146102a15780632f745c59146102b4576101c4565b8063095ea7b3116101a2578063095ea7b314610231578063162094c41461024657806318160ddd1461025957806323b872dd1461026b576101c4565b806301ffc9a7146101c957806306fdde03146101f1578063081812fc14610206575b600080fd5b6101dc6101d7366004612049565b610465565b60405190151581526020015b60405180910390f35b6101f9610478565b6040516101e89190612234565b61021961021436600461200f565b61050a565b6040516001600160a01b0390911681526020016101e8565b61024461023f366004611fe6565b610597565b005b6102446102543660046120b4565b6106ad565b6009545b6040519081526020016101e8565b610244610279366004611eac565b6106bb565b61025d61028c36600461200f565b60009081526020819052604090206001015490565b6102446102af366004612027565b6106ec565b61025d6102c2366004611fe6565b610713565b6102446102d5366004612027565b6107a9565b6102446102e8366004611eac565b610823565b61025d6102fb36600461200f565b61083e565b61024461030e366004612081565b6108df565b61021961032136600461200f565b6108f2565b61025d610334366004611e60565b610969565b6101dc610347366004612027565b6109f0565b6101f9610a19565b61025d600081565b61024461036a366004611f60565b610a28565b61024461037d366004611ee7565b610a33565b6101f961039036600461200f565b610a6b565b61025d6103a3366004611f9a565b610a9b565b61025d7f9f2df0fed2c77648de5860a4cc508cd0818c85b8b8a1ab4ceeef8d981c8956a681565b6102446103dd366004612027565b610b61565b61025d7f9e262e26e9d5bf97da5c389e15529a31bb2b13d89967a4f6eab01792567d5fd681565b6101dc610417366004611e7a565b6001600160a01b03918216600090815260066020908152604080832093909416825291909152205460ff1690565b610458610453366004611e60565b610b87565b6040516101e891906121f0565b600061047082610c7d565b90505b919050565b606060018054610487906123e0565b80601f01602080910402602001604051908101604052809291908181526020018280546104b3906123e0565b80156105005780601f106104d557610100808354040283529160200191610500565b820191906000526020600020905b8154815290600101906020018083116104e357829003601f168201915b5050505050905090565b600061051582610ca2565b61057b5760405162461bcd60e51b815260206004820152602c60248201527f4552433732313a20617070726f76656420717565727920666f72206e6f6e657860448201526b34b9ba32b73a103a37b5b2b760a11b60648201526084015b60405180910390fd5b506000908152600560205260409020546001600160a01b031690565b60006105a2826108f2565b9050806001600160a01b0316836001600160a01b031614156106105760405162461bcd60e51b815260206004820152602160248201527f4552433732313a20617070726f76616c20746f2063757272656e74206f776e656044820152603960f91b6064820152608401610572565b336001600160a01b038216148061062c575061062c8133610417565b61069e5760405162461bcd60e51b815260206004820152603860248201527f4552433732313a20617070726f76652063616c6c6572206973206e6f74206f7760448201527f6e6572206e6f7220617070726f76656420666f7220616c6c00000000000000006064820152608401610572565b6106a88383610cbf565b505050565b6106b78282610d2d565b5050565b6106c53382610db8565b6106e15760405162461bcd60e51b8152600401610572906122ea565b6106a8838383610ea2565b60008281526020819052604090206001015461070981335b61104d565b6106a883836110b1565b600061071e83610969565b82106107805760405162461bcd60e51b815260206004820152602b60248201527f455243373231456e756d657261626c653a206f776e657220696e646578206f7560448201526a74206f6620626f756e647360a81b6064820152608401610572565b506001600160a01b03919091166000908152600760209081526040808320938352929052205490565b6001600160a01b03811633146108195760405162461bcd60e51b815260206004820152602f60248201527f416363657373436f6e74726f6c3a2063616e206f6e6c792072656e6f756e636560448201526e103937b632b9903337b91039b2b63360891b6064820152608401610572565b6106b78282611135565b6106a883838360405180602001604052806000815250610a33565b600061084960095490565b82106108ac5760405162461bcd60e51b815260206004820152602c60248201527f455243373231456e756d657261626c653a20676c6f62616c20696e646578206f60448201526b7574206f6620626f756e647360a01b6064820152608401610572565b600982815481106108cd57634e487b7160e01b600052603260045260246000fd5b90600052602060002001549050919050565b80516106b790600c906020840190611d1b565b6000818152600360205260408120546001600160a01b0316806104705760405162461bcd60e51b815260206004820152602960248201527f4552433732313a206f776e657220717565727920666f72206e6f6e657869737460448201526832b73a103a37b5b2b760b91b6064820152608401610572565b60006001600160a01b0382166109d45760405162461bcd60e51b815260206004820152602a60248201527f4552433732313a2062616c616e636520717565727920666f7220746865207a65604482015269726f206164647265737360b01b6064820152608401610572565b506001600160a01b031660009081526004602052604090205490565b6000918252602082815260408084206001600160a01b0393909316845291905290205460ff1690565b606060028054610487906123e0565b6106b733838361119a565b610a3d3383610db8565b610a595760405162461bcd60e51b8152600401610572906122ea565b610a6584848484611269565b50505050565b6060610a7682610ca2565b610a925760405162461bcd60e51b815260040161057290612299565b6104708261129c565b6000610ac77f9f2df0fed2c77648de5860a4cc508cd0818c85b8b8a1ab4ceeef8d981c8956a633610347565b610b135760405162461bcd60e51b815260206004820152601d60248201527f4d7573742068617665206d696e74657220726f6c6520746f206d696e740000006044820152606401610572565b610b2583610b20600d5490565b6113b5565b610b37610b31600d5490565b83610d2d565b610b45600d80546001019055565b6001610b50600d5490565b610b5a9190612386565b9392505050565b600082815260208190526040902060010154610b7d8133610704565b6106a88383611135565b60606000610b94600d5490565b90506000610ba184610969565b905060008167ffffffffffffffff811115610bcc57634e487b7160e01b600052604160045260246000fd5b604051908082528060200260200182016040528015610bf5578160200160208202803683370190505b5090506000805b84811015610c7257866001600160a01b0316610c17826108f2565b6001600160a01b03161415610c605780838381518110610c4757634e487b7160e01b600052603260045260246000fd5b602090810291909101015281610c5c8161241b565b9250505b80610c6a8161241b565b915050610bfc565b509095945050505050565b60006001600160e01b0319821663780e9d6360e01b14806104705750610470826113cf565b6000908152600360205260409020546001600160a01b0316151590565b600081815260056020526040902080546001600160a01b0319166001600160a01b0384169081179091558190610cf4826108f2565b6001600160a01b03167f8c5be1e5ebec7d5bd14f71427d1e84f3dd0314c0f7b2291e5b200ac8c7c3b92560405160405180910390a45050565b610d3682610ca2565b610d995760405162461bcd60e51b815260206004820152602e60248201527f45524337323155524953746f726167653a2055524920736574206f66206e6f6e60448201526d32bc34b9ba32b73a103a37b5b2b760911b6064820152608401610572565b6000828152600b6020908152604090912082516106a892840190611d1b565b6000610dc382610ca2565b610e245760405162461bcd60e51b815260206004820152602c60248201527f4552433732313a206f70657261746f7220717565727920666f72206e6f6e657860448201526b34b9ba32b73a103a37b5b2b760a11b6064820152608401610572565b6000610e2f836108f2565b9050806001600160a01b0316846001600160a01b03161480610e6a5750836001600160a01b0316610e5f8461050a565b6001600160a01b0316145b80610e9a57506001600160a01b0380821660009081526006602090815260408083209388168352929052205460ff165b949350505050565b826001600160a01b0316610eb5826108f2565b6001600160a01b031614610f1d5760405162461bcd60e51b815260206004820152602960248201527f4552433732313a207472616e73666572206f6620746f6b656e2074686174206960448201526839903737ba1037bbb760b91b6064820152608401610572565b6001600160a01b038216610f7f5760405162461bcd60e51b8152602060048201526024808201527f4552433732313a207472616e7366657220746f20746865207a65726f206164646044820152637265737360e01b6064820152608401610572565b610f8a83838361140f565b610f95600082610cbf565b6001600160a01b0383166000908152600460205260408120805460019290610fbe908490612386565b90915550506001600160a01b0382166000908152600460205260408120805460019290610fec90849061233b565b909155505060008181526003602052604080822080546001600160a01b0319166001600160a01b0386811691821790925591518493918716917fddf252ad1be2c89b69c2b068fc378daa952ba7f163c4a11628f55a4df523b3ef91a4505050565b61105782826109f0565b6106b75761106f816001600160a01b0316601461141a565b61107a83602061141a565b60405160200161108b92919061213e565b60408051601f198184030181529082905262461bcd60e51b825261057291600401612234565b6110bb82826109f0565b6106b7576000828152602081815260408083206001600160a01b03851684529091529020805460ff191660011790556110f13390565b6001600160a01b0316816001600160a01b0316837f2f8788117e7eff1d82e926ec794901d17c78024a50270940304540a733656f0d60405160405180910390a45050565b61113f82826109f0565b156106b7576000828152602081815260408083206001600160a01b0385168085529252808320805460ff1916905551339285917ff6391f5c32d9c69d2a47ea670b442974b53935d1edc7fd64eb21e047a839171b9190a45050565b816001600160a01b0316836001600160a01b031614156111fc5760405162461bcd60e51b815260206004820152601960248201527f4552433732313a20617070726f766520746f2063616c6c6572000000000000006044820152606401610572565b6001600160a01b03838116600081815260066020908152604080832094871680845294825291829020805460ff191686151590811790915591519182527f17307eab39ab6107e8899845ad3d59bd9653f200f220920489ca2b5937696c31910160405180910390a3505050565b611274848484610ea2565b611280848484846115fc565b610a655760405162461bcd60e51b815260040161057290612247565b60606112a782610ca2565b6112c35760405162461bcd60e51b815260040161057290612299565b6000828152600b6020526040812080546112dc906123e0565b80601f0160208091040260200160405190810160405280929190818152602001828054611308906123e0565b80156113555780601f1061132a57610100808354040283529160200191611355565b820191906000526020600020905b81548152906001019060200180831161133857829003601f168201915b505050505090506000611366611709565b905080516000141561137a57509050610473565b8151156113ac57808260405160200161139492919061210f565b60405160208183030381529060405292505050610473565b610e9a84611718565b6106b78282604051806020016040528060008152506117e2565b60006001600160e01b031982166380ac58cd60e01b148061140057506001600160e01b03198216635b5e139f60e01b145b80610470575061047082611815565b6106a883838361184a565b60606000611429836002612367565b61143490600261233b565b67ffffffffffffffff81111561145a57634e487b7160e01b600052604160045260246000fd5b6040519080825280601f01601f191660200182016040528015611484576020820181803683370190505b509050600360fc1b816000815181106114ad57634e487b7160e01b600052603260045260246000fd5b60200101906001600160f81b031916908160001a905350600f60fb1b816001815181106114ea57634e487b7160e01b600052603260045260246000fd5b60200101906001600160f81b031916908160001a905350600061150e846002612367565b61151990600161233b565b90505b60018111156115ad576f181899199a1a9b1b9c1cb0b131b232b360811b85600f166010811061155b57634e487b7160e01b600052603260045260246000fd5b1a60f81b82828151811061157f57634e487b7160e01b600052603260045260246000fd5b60200101906001600160f81b031916908160001a90535060049490941c936115a6816123c9565b905061151c565b508315610b5a5760405162461bcd60e51b815260206004820181905260248201527f537472696e67733a20686578206c656e67746820696e73756666696369656e746044820152606401610572565b60006001600160a01b0384163b156116fe57604051630a85bd0160e11b81526001600160a01b0385169063150b7a02906116409033908990889088906004016121b3565b602060405180830381600087803b15801561165a57600080fd5b505af192505050801561168a575060408051601f3d908101601f1916820190925261168791810190612065565b60015b6116e4573d8080156116b8576040519150601f19603f3d011682016040523d82523d6000602084013e6116bd565b606091505b5080516116dc5760405162461bcd60e51b815260040161057290612247565b805181602001fd5b6001600160e01b031916630a85bd0160e11b149050610e9a565b506001949350505050565b6060600c8054610487906123e0565b606061172382610ca2565b6117875760405162461bcd60e51b815260206004820152602f60248201527f4552433732314d657461646174613a2055524920717565727920666f72206e6f60448201526e3732bc34b9ba32b73a103a37b5b2b760891b6064820152608401610572565b6000611791611709565b905060008151116117b15760405180602001604052806000815250610b5a565b806117bb84611907565b6040516020016117cc92919061210f565b6040516020818303038152906040529392505050565b6117ec8383611a22565b6117f960008484846115fc565b6106a85760405162461bcd60e51b815260040161057290612247565b60006001600160e01b03198216637965db0b60e01b148061047057506301ffc9a760e01b6001600160e01b0319831614610470565b6001600160a01b0383166118a5576118a081600980546000838152600a60205260408120829055600182018355919091527f6e1540171b6c0c960b71a7020d9f60077f6af931a8bbf590da0223dacf75c7af0155565b6118c8565b816001600160a01b0316836001600160a01b0316146118c8576118c88382611b61565b6001600160a01b0382166118e4576118df81611bfe565b6106a8565b826001600160a01b0316826001600160a01b0316146106a8576106a88282611cd7565b60608161192c57506040805180820190915260018152600360fc1b6020820152610473565b8160005b811561195657806119408161241b565b915061194f9050600a83612353565b9150611930565b60008167ffffffffffffffff81111561197f57634e487b7160e01b600052604160045260246000fd5b6040519080825280601f01601f1916602001820160405280156119a9576020820181803683370190505b5090505b8415610e9a576119be600183612386565b91506119cb600a86612436565b6119d690603061233b565b60f81b8183815181106119f957634e487b7160e01b600052603260045260246000fd5b60200101906001600160f81b031916908160001a905350611a1b600a86612353565b94506119ad565b6001600160a01b038216611a785760405162461bcd60e51b815260206004820181905260248201527f4552433732313a206d696e7420746f20746865207a65726f20616464726573736044820152606401610572565b611a8181610ca2565b15611ace5760405162461bcd60e51b815260206004820152601c60248201527f4552433732313a20746f6b656e20616c7265616479206d696e746564000000006044820152606401610572565b611ada6000838361140f565b6001600160a01b0382166000908152600460205260408120805460019290611b0390849061233b565b909155505060008181526003602052604080822080546001600160a01b0319166001600160a01b03861690811790915590518392907fddf252ad1be2c89b69c2b068fc378daa952ba7f163c4a11628f55a4df523b3ef908290a45050565b60006001611b6e84610969565b611b789190612386565b600083815260086020526040902054909150808214611bcb576001600160a01b03841660009081526007602090815260408083208584528252808320548484528184208190558352600890915290208190555b5060009182526008602090815260408084208490556001600160a01b039094168352600781528383209183525290812055565b600954600090611c1090600190612386565b6000838152600a602052604081205460098054939450909284908110611c4657634e487b7160e01b600052603260045260246000fd5b906000526020600020015490508060098381548110611c7557634e487b7160e01b600052603260045260246000fd5b6000918252602080832090910192909255828152600a90915260408082208490558582528120556009805480611cbb57634e487b7160e01b600052603160045260246000fd5b6001900381819060005260206000200160009055905550505050565b6000611ce283610969565b6001600160a01b039093166000908152600760209081526040808320868452825280832085905593825260089052919091209190915550565b828054611d27906123e0565b90600052602060002090601f016020900481019282611d495760008555611d8f565b82601f10611d6257805160ff1916838001178555611d8f565b82800160010185558215611d8f579182015b82811115611d8f578251825591602001919060010190611d74565b50611d9b929150611d9f565b5090565b5b80821115611d9b5760008155600101611da0565b600067ffffffffffffffff80841115611dcf57611dcf612476565b604051601f8501601f19908116603f01168101908282118183101715611df757611df7612476565b81604052809350858152868686011115611e1057600080fd5b858560208301376000602087830101525050509392505050565b80356001600160a01b038116811461047357600080fd5b600082601f830112611e51578081fd5b610b5a83833560208501611db4565b600060208284031215611e71578081fd5b610b5a82611e2a565b60008060408385031215611e8c578081fd5b611e9583611e2a565b9150611ea360208401611e2a565b90509250929050565b600080600060608486031215611ec0578081fd5b611ec984611e2a565b9250611ed760208501611e2a565b9150604084013590509250925092565b60008060008060808587031215611efc578081fd5b611f0585611e2a565b9350611f1360208601611e2a565b925060408501359150606085013567ffffffffffffffff811115611f35578182fd5b8501601f81018713611f45578182fd5b611f5487823560208401611db4565b91505092959194509250565b60008060408385031215611f72578182fd5b611f7b83611e2a565b915060208301358015158114611f8f578182fd5b809150509250929050565b60008060408385031215611fac578182fd5b611fb583611e2a565b9150602083013567ffffffffffffffff811115611fd0578182fd5b611fdc85828601611e41565b9150509250929050565b60008060408385031215611ff8578182fd5b61200183611e2a565b946020939093013593505050565b600060208284031215612020578081fd5b5035919050565b60008060408385031215612039578182fd5b82359150611ea360208401611e2a565b60006020828403121561205a578081fd5b8135610b5a8161248c565b600060208284031215612076578081fd5b8151610b5a8161248c565b600060208284031215612092578081fd5b813567ffffffffffffffff8111156120a8578182fd5b610e9a84828501611e41565b600080604083850312156120c6578182fd5b82359150602083013567ffffffffffffffff811115611fd0578182fd5b600081518084526120fb81602086016020860161239d565b601f01601f19169290920160200192915050565b6000835161212181846020880161239d565b83519083019061213581836020880161239d565b01949350505050565b60007f416363657373436f6e74726f6c3a206163636f756e74200000000000000000008252835161217681601785016020880161239d565b7001034b99036b4b9b9b4b733903937b6329607d1b60179184019182015283516121a781602884016020880161239d565b01602801949350505050565b6001600160a01b03858116825284166020820152604081018390526080606082018190526000906121e6908301846120e3565b9695505050505050565b6020808252825182820181905260009190848201906040850190845b818110156122285783518352928401929184019160010161220c565b50909695505050505050565b600060208252610b5a60208301846120e3565b60208082526032908201527f4552433732313a207472616e7366657220746f206e6f6e20455243373231526560408201527131b2b4bb32b91034b6b83632b6b2b73a32b960711b606082015260800190565b60208082526031908201527f45524337323155524953746f726167653a2055524920717565727920666f72206040820152703737b732bc34b9ba32b73a103a37b5b2b760791b606082015260800190565b60208082526031908201527f4552433732313a207472616e736665722063616c6c6572206973206e6f74206f6040820152701ddb995c881b9bdc88185c1c1c9bdd9959607a1b606082015260800190565b6000821982111561234e5761234e61244a565b500190565b60008261236257612362612460565b500490565b60008160001904831182151516156123815761238161244a565b500290565b6000828210156123985761239861244a565b500390565b60005b838110156123b85781810151838201526020016123a0565b83811115610a655750506000910152565b6000816123d8576123d861244a565b506000190190565b600181811c908216806123f457607f821691505b6020821081141561241557634e487b7160e01b600052602260045260246000fd5b50919050565b600060001982141561242f5761242f61244a565b5060010190565b60008261244557612445612460565b500690565b634e487b7160e01b600052601160045260246000fd5b634e487b7160e01b600052601260045260246000fd5b634e487b7160e01b600052604160045260246000fd5b6001600160e01b0319811681146124a257600080fd5b5056fea2646970667358221220d04071916aeddbc28c14d20325aa746ee5f88099ef127e2213d2f0fd7353adaf64736f6c63430008030033",
  "devdoc": {
    "kind": "dev",
    "methods": {
      "approve(address,uint256)": {
        "details": "See {IERC721-approve}."
      },
      "balanceOf(address)": {
        "details": "See {IERC721-balanceOf}."
      },
      "getApproved(uint256)": {
        "details": "See {IERC721-getApproved}."
      },
      "getRoleAdmin(bytes32)": {
        "details": "Returns the admin role that controls `role`. See {grantRole} and {revokeRole}. To change a role's admin, use {_setRoleAdmin}."
      },
      "grantRole(bytes32,address)": {
        "details": "Grants `role` to `account`. If `account` had not been already granted `role`, emits a {RoleGranted} event. Requirements: - the caller must have ``role``'s admin role."
      },
      "hasRole(bytes32,address)": {
        "details": "Returns `true` if `account` has been granted `role`."
      },
      "isApprovedForAll(address,address)": {
        "details": "See {IERC721-isApprovedForAll}."
      },
      "name()": {
        "details": "See {IERC721Metadata-name}."
      },
      "ownerOf(uint256)": {
        "details": "See {IERC721-ownerOf}."
      },
      "renounceRole(bytes32,address)": {
        "details": "Revokes `role` from the calling account. Roles are often managed via {grantRole} and {revokeRole}: this function's purpose is to provide a mechanism for accounts to lose their privileges if they are compromised (such as when a trusted device is misplaced). If the calling account had been revoked `role`, emits a {RoleRevoked} event. Requirements: - the caller must be `account`."
      },
      "revokeRole(bytes32,address)": {
        "details": "Revokes `role` from `account`. If `account` had been granted `role`, emits a {RoleRevoked} event. Requirements: - the caller must have ``role``'s admin role."
      },
      "safeTransferFrom(address,address,uint256)": {
        "details": "See {IERC721-safeTransferFrom}."
      },
      "safeTransferFrom(address,address,uint256,bytes)": {
        "details": "See {IERC721-safeTransferFrom}."
      },
      "setApprovalForAll(address,bool)": {
        "details": "See {IERC721-setApprovalForAll}."
      },
      "symbol()": {
        "details": "See {IERC721Metadata-symbol}."
      },
      "tokenByIndex(uint256)": {
        "details": "See {IERC721Enumerable-tokenByIndex}."
      },
      "tokenOfOwnerByIndex(address,uint256)": {
        "details": "See {IERC721Enumerable-tokenOfOwnerByIndex}."
      },
      "totalSupply()": {
        "details": "See {IERC721Enumerable-totalSupply}."
      },
      "transferFrom(address,address,uint256)": {
        "details": "See {IERC721-transferFrom}."
      }
    },
    "version": 1
  },
  "userdoc": {
    "kind": "user",
    "methods": {},
    "version": 1
  },
  "storageLayout": {
    "storage": [
      {
        "astId": 24,
        "contract": "contracts/MamonNFT.sol:MamonNFT",
        "label": "_roles",
        "offset": 0,
        "slot": "0",
        "type": "t_mapping(t_bytes32,t_struct(RoleData)19_storage)"
      },
      {
        "astId": 1056,
        "contract": "contracts/MamonNFT.sol:MamonNFT",
        "label": "_name",
        "offset": 0,
        "slot": "1",
        "type": "t_string_storage"
      },
      {
        "astId": 1058,
        "contract": "contracts/MamonNFT.sol:MamonNFT",
        "label": "_symbol",
        "offset": 0,
        "slot": "2",
        "type": "t_string_storage"
      },
      {
        "astId": 1062,
        "contract": "contracts/MamonNFT.sol:MamonNFT",
        "label": "_owners",
        "offset": 0,
        "slot": "3",
        "type": "t_mapping(t_uint256,t_address)"
      },
      {
        "astId": 1066,
        "contract": "contracts/MamonNFT.sol:MamonNFT",
        "label": "_balances",
        "offset": 0,
        "slot": "4",
        "type": "t_mapping(t_address,t_uint256)"
      },
      {
        "astId": 1070,
        "contract": "contracts/MamonNFT.sol:MamonNFT",
        "label": "_tokenApprovals",
        "offset": 0,
        "slot": "5",
        "type": "t_mapping(t_uint256,t_address)"
      },
      {
        "astId": 1076,
        "contract": "contracts/MamonNFT.sol:MamonNFT",
        "label": "_operatorApprovals",
        "offset": 0,
        "slot": "6",
        "type": "t_mapping(t_address,t_mapping(t_address,t_bool))"
      },
      {
        "astId": 2010,
        "contract": "contracts/MamonNFT.sol:MamonNFT",
        "label": "_ownedTokens",
        "offset": 0,
        "slot": "7",
        "type": "t_mapping(t_address,t_mapping(t_uint256,t_uint256))"
      },
      {
        "astId": 2014,
        "contract": "contracts/MamonNFT.sol:MamonNFT",
        "label": "_ownedTokensIndex",
        "offset": 0,
        "slot": "8",
        "type": "t_mapping(t_uint256,t_uint256)"
      },
      {
        "astId": 2017,
        "contract": "contracts/MamonNFT.sol:MamonNFT",
        "label": "_allTokens",
        "offset": 0,
        "slot": "9",
        "type": "t_array(t_uint256)dyn_storage"
      },
      {
        "astId": 2021,
        "contract": "contracts/MamonNFT.sol:MamonNFT",
        "label": "_allTokensIndex",
        "offset": 0,
        "slot": "10",
        "type": "t_mapping(t_uint256,t_uint256)"
      },
      {
        "astId": 2346,
        "contract": "contracts/MamonNFT.sol:MamonNFT",
        "label": "_tokenURIs",
        "offset": 0,
        "slot": "11",
        "type": "t_mapping(t_uint256,t_string_storage)"
      },
      {
        "astId": 3602,
        "contract": "contracts/MamonNFT.sol:MamonNFT",
        "label": "baseURI",
        "offset": 0,
        "slot": "12",
        "type": "t_string_storage"
      },
      {
        "astId": 3615,
        "contract": "contracts/MamonNFT.sol:MamonNFT",
        "label": "_tokenIdTracker",
        "offset": 0,
        "slot": "13",
        "type": "t_struct(Counter)2844_storage"
      }
    ],
    "types": {
      "t_address": {
        "encoding": "inplace",
        "label": "address",
        "numberOfBytes": "20"
      },
      "t_array(t_uint256)dyn_storage": {
        "base": "t_uint256",
        "encoding": "dynamic_array",
        "label": "uint256[]",
        "numberOfBytes": "32"
      },
      "t_bool": {
        "encoding": "inplace",
        "label": "bool",
        "numberOfBytes": "1"
      },
      "t_bytes32": {
        "encoding": "inplace",
        "label": "bytes32",
        "numberOfBytes": "32"
      },
      "t_mapping(t_address,t_bool)": {
        "encoding": "mapping",
        "key": "t_address",
        "label": "mapping(address => bool)",
        "numberOfBytes": "32",
        "value": "t_bool"
      },
      "t_mapping(t_address,t_mapping(t_address,t_bool))": {
        "encoding": "mapping",
        "key": "t_address",
        "label": "mapping(address => mapping(address => bool))",
        "numberOfBytes": "32",
        "value": "t_mapping(t_address,t_bool)"
      },
      "t_mapping(t_address,t_mapping(t_uint256,t_uint256))": {
        "encoding": "mapping",
        "key": "t_address",
        "label": "mapping(address => mapping(uint256 => uint256))",
        "numberOfBytes": "32",
        "value": "t_mapping(t_uint256,t_uint256)"
      },
      "t_mapping(t_address,t_uint256)": {
        "encoding": "mapping",
        "key": "t_address",
        "label": "mapping(address => uint256)",
        "numberOfBytes": "32",
        "value": "t_uint256"
      },
      "t_mapping(t_bytes32,t_struct(RoleData)19_storage)": {
        "encoding": "mapping",
        "key": "t_bytes32",
        "label": "mapping(bytes32 => struct AccessControl.RoleData)",
        "numberOfBytes": "32",
        "value": "t_struct(RoleData)19_storage"
      },
      "t_mapping(t_uint256,t_address)": {
        "encoding": "mapping",
        "key": "t_uint256",
        "label": "mapping(uint256 => address)",
        "numberOfBytes": "32",
        "value": "t_address"
      },
      "t_mapping(t_uint256,t_string_storage)": {
        "encoding": "mapping",
        "key": "t_uint256",
        "label": "mapping(uint256 => string)",
        "numberOfBytes": "32",
        "value": "t_string_storage"
      },
      "t_mapping(t_uint256,t_uint256)": {
        "encoding": "mapping",
        "key": "t_uint256",
        "label": "mapping(uint256 => uint256)",
        "numberOfBytes": "32",
        "value": "t_uint256"
      },
      "t_string_storage": {
        "encoding": "bytes",
        "label": "string",
        "numberOfBytes": "32"
      },
      "t_struct(Counter)2844_storage": {
        "encoding": "inplace",
        "label": "struct Counters.Counter",
        "members": [
          {
            "astId": 2843,
            "contract": "contracts/MamonNFT.sol:MamonNFT",
            "label": "_value",
            "offset": 0,
            "slot": "0",
            "type": "t_uint256"
          }
        ],
        "numberOfBytes": "32"
      },
      "t_struct(RoleData)19_storage": {
        "encoding": "inplace",
        "label": "struct AccessControl.RoleData",
        "members": [
          {
            "astId": 16,
            "contract": "contracts/MamonNFT.sol:MamonNFT",
            "label": "members",
            "offset": 0,
            "slot": "0",
            "type": "t_mapping(t_address,t_bool)"
          },
          {
            "astId": 18,
            "contract": "contracts/MamonNFT.sol:MamonNFT",
            "label": "adminRole",
            "offset": 0,
            "slot": "1",
            "type": "t_bytes32"
          }
        ],
        "numberOfBytes": "64"
      },
      "t_uint256": {
        "encoding": "inplace",
        "label": "uint256",
        "numberOfBytes": "32"
      }
    }
  }
}