{
  "address": "0xaa94bdF35b07F04f5d89fAC57d54416594BFD1dc",
  "abi": [
    {
      "inputs": [
        {
          "internalType": "address",
          "name": "_nftAddr",
          "type": "address"
        },
        {
          "internalType": "address",
          "name": "_myToken",
          "type": "address"
        },
        {
          "internalType": "address",
          "name": "_minter",
          "type": "address"
        },
        {
          "internalType": "uint256",
          "name": "_fee",
          "type": "uint256"
        }
      ],
      "stateMutability": "nonpayable",
      "type": "constructor"
    },
    {
      "anonymous": false,
      "inputs": [
        {
          "indexed": false,
          "internalType": "uint256",
          "name": "tokenId",
          "type": "uint256"
        }
      ],
      "name": "AuctionCancelled",
      "type": "event"
    },
    {
      "anonymous": false,
      "inputs": [
        {
          "indexed": false,
          "internalType": "uint256",
          "name": "token_id",
          "type": "uint256"
        },
        {
          "indexed": false,
          "internalType": "uint256",
          "name": "startingPrice",
          "type": "uint256"
        },
        {
          "indexed": false,
          "internalType": "uint256",
          "name": "duration",
          "type": "uint256"
        },
        {
          "indexed": false,
          "internalType": "bool",
          "name": "isFixed",
          "type": "bool"
        }
      ],
      "name": "AuctionCreated",
      "type": "event"
    },
    {
      "anonymous": false,
      "inputs": [
        {
          "indexed": false,
          "internalType": "uint256",
          "name": "tokenId",
          "type": "uint256"
        },
        {
          "indexed": false,
          "internalType": "uint256",
          "name": "totalPrice",
          "type": "uint256"
        },
        {
          "indexed": false,
          "internalType": "address",
          "name": "buyer",
          "type": "address"
        }
      ],
      "name": "BuySuccessful",
      "type": "event"
    },
    {
      "anonymous": false,
      "inputs": [
        {
          "indexed": false,
          "internalType": "uint256",
          "name": "tokenId",
          "type": "uint256"
        },
        {
          "indexed": false,
          "internalType": "uint256",
          "name": "price",
          "type": "uint256"
        },
        {
          "indexed": false,
          "internalType": "address",
          "name": "claimer",
          "type": "address"
        }
      ],
      "name": "ClaimSuccessful",
      "type": "event"
    },
    {
      "inputs": [
        {
          "internalType": "uint256",
          "name": "_tokenId",
          "type": "uint256"
        }
      ],
      "name": "auctionInfo",
      "outputs": [
        {
          "components": [
            {
              "internalType": "address",
              "name": "seller",
              "type": "address"
            },
            {
              "internalType": "uint256",
              "name": "startingPrice",
              "type": "uint256"
            },
            {
              "internalType": "uint256",
              "name": "highestBidAmount",
              "type": "uint256"
            },
            {
              "internalType": "address",
              "name": "highestBidder",
              "type": "address"
            },
            {
              "internalType": "uint64",
              "name": "duration",
              "type": "uint64"
            },
            {
              "internalType": "uint64",
              "name": "startedAt",
              "type": "uint64"
            },
            {
              "internalType": "bool",
              "name": "isFixed",
              "type": "bool"
            }
          ],
          "internalType": "struct NftAuction.Auction",
          "name": "",
          "type": "tuple"
        }
      ],
      "stateMutability": "view",
      "type": "function"
    },
    {
      "inputs": [
        {
          "internalType": "uint256",
          "name": "_tokenId",
          "type": "uint256"
        },
        {
          "internalType": "uint256",
          "name": "_amount",
          "type": "uint256"
        }
      ],
      "name": "bid",
      "outputs": [],
      "stateMutability": "nonpayable",
      "type": "function"
    },
    {
      "inputs": [
        {
          "internalType": "uint256",
          "name": "_tokenId",
          "type": "uint256"
        },
        {
          "internalType": "uint256",
          "name": "_amount",
          "type": "uint256"
        }
      ],
      "name": "buy",
      "outputs": [],
      "stateMutability": "nonpayable",
      "type": "function"
    },
    {
      "inputs": [
        {
          "internalType": "uint256",
          "name": "_tokenId",
          "type": "uint256"
        }
      ],
      "name": "cancelAuction",
      "outputs": [],
      "stateMutability": "nonpayable",
      "type": "function"
    },
    {
      "inputs": [
        {
          "internalType": "uint256",
          "name": "_tokenId",
          "type": "uint256"
        }
      ],
      "name": "claim",
      "outputs": [],
      "stateMutability": "nonpayable",
      "type": "function"
    },
    {
      "inputs": [
        {
          "internalType": "uint256",
          "name": "_tokenId",
          "type": "uint256"
        },
        {
          "internalType": "uint256",
          "name": "_startingPrice",
          "type": "uint256"
        },
        {
          "internalType": "uint256",
          "name": "_duration",
          "type": "uint256"
        },
        {
          "internalType": "address",
          "name": "_seller",
          "type": "address"
        }
      ],
      "name": "createAuction",
      "outputs": [],
      "stateMutability": "nonpayable",
      "type": "function"
    },
    {
      "inputs": [
        {
          "internalType": "uint256",
          "name": "_tokenId",
          "type": "uint256"
        },
        {
          "internalType": "uint256",
          "name": "_fixPrice",
          "type": "uint256"
        },
        {
          "internalType": "address",
          "name": "_seller",
          "type": "address"
        }
      ],
      "name": "createFixed",
      "outputs": [],
      "stateMutability": "nonpayable",
      "type": "function"
    },
    {
      "inputs": [],
      "name": "fee",
      "outputs": [
        {
          "internalType": "uint256",
          "name": "",
          "type": "uint256"
        }
      ],
      "stateMutability": "view",
      "type": "function"
    },
    {
      "inputs": [],
      "name": "listAuction",
      "outputs": [
        {
          "internalType": "uint256[]",
          "name": "",
          "type": "uint256[]"
        }
      ],
      "stateMutability": "view",
      "type": "function"
    },
    {
      "inputs": [],
      "name": "minter",
      "outputs": [
        {
          "internalType": "address",
          "name": "",
          "type": "address"
        }
      ],
      "stateMutability": "view",
      "type": "function"
    },
    {
      "inputs": [],
      "name": "myToken",
      "outputs": [
        {
          "internalType": "contract ERC20",
          "name": "",
          "type": "address"
        }
      ],
      "stateMutability": "view",
      "type": "function"
    },
    {
      "inputs": [],
      "name": "nonFungibleContract",
      "outputs": [
        {
          "internalType": "contract ERC721",
          "name": "",
          "type": "address"
        }
      ],
      "stateMutability": "view",
      "type": "function"
    },
    {
      "inputs": [],
      "name": "owner",
      "outputs": [
        {
          "internalType": "address",
          "name": "",
          "type": "address"
        }
      ],
      "stateMutability": "view",
      "type": "function"
    },
    {
      "inputs": [
        {
          "internalType": "address",
          "name": "newOwner",
          "type": "address"
        }
      ],
      "name": "transferOwnership",
      "outputs": [],
      "stateMutability": "nonpayable",
      "type": "function"
    },
    {
      "inputs": [
        {
          "internalType": "uint256",
          "name": "_fee",
          "type": "uint256"
        }
      ],
      "name": "updateFee",
      "outputs": [],
      "stateMutability": "nonpayable",
      "type": "function"
    },
    {
      "inputs": [
        {
          "internalType": "address",
          "name": "_minter",
          "type": "address"
        }
      ],
      "name": "updateMinter",
      "outputs": [],
      "stateMutability": "nonpayable",
      "type": "function"
    },
    {
      "inputs": [
        {
          "internalType": "address",
          "name": "_owner",
          "type": "address"
        }
      ],
      "name": "updateOwner",
      "outputs": [],
      "stateMutability": "nonpayable",
      "type": "function"
    }
  ],
  "transactionHash": "0xa5304fe9824b2ae31d2a274b78749553495c38ff3ce400310a9057e3677dc19a",
  "args": [
    "0x113eBe4F82EF7C891B306AA5469479dE827AaB1A",
    "0x0CcA58C9299B2C6ffC04b459f53d2dc5d321B475",
    "0x4c3F050fF22156DF509249Adfa76dA6B17437043",
    100
  ],
  "solcInputHash": "d63f5519cc5673345400130c345fc6ce",
  "bytecode": "0x60806040523480156200001157600080fd5b5060405162001e3f38038062001e3f8339810160408190526200003491620000b8565b600080546001600160a01b0319163317905560c88111156200005557600080fd5b600380546001600160a01b03199081166001600160a01b039687161790915560048054821694861694909417909355600580549093169190931617905560065562000109565b80516001600160a01b0381168114620000b357600080fd5b919050565b60008060008060808587031215620000ce578384fd5b620000d9856200009b565b9350620000e9602086016200009b565b9250620000f9604086016200009b565b6060959095015193969295505050565b611d2680620001196000396000f3fe608060405234801561001057600080fd5b506004361061010b5760003560e01c80639012c4a8116100a2578063d4da4aee11610071578063d4da4aee14610288578063d6febde81461029b578063dd1b7a0f146102ae578063ddca3f43146102c1578063f2fde38b146102d85761010b565b80639012c4a8146101c9578063957a867c146101dc57806396b5a75514610262578063b8fcf937146102755761010b565b8063598647f8116100de578063598647f81461017d578063819c9e4c14610190578063880cdc31146101a35780638da5cb5b146101b65761010b565b806307546172146101105780632cf6856f14610140578063379607f5146101555780634eb03f6e1461016a575b600080fd5b600554610123906001600160a01b031681565b6040516001600160a01b0390911681526020015b60405180910390f35b6101486102eb565b6040516101379190611be2565b610168610163366004611b13565b6103f5565b005b610168610178366004611ad9565b610a25565b61016861018b366004611b2b565b610a71565b61016861019e366004611b80565b610d8f565b6101686101b1366004611ad9565b610f4d565b600054610123906001600160a01b031681565b6101686101d7366004611b13565b610f99565b6101ef6101ea366004611b13565b610fc3565b6040516101379190600060e08201905060018060a01b0380845116835260208401516020840152604084015160408401528060608501511660608401525060808301516001600160401b0380821660808501528060a08601511660a0850152505060c0830151151560c083015292915050565b610168610270366004611b13565b611055565b600454610123906001600160a01b031681565b610168610296366004611b4c565b61132f565b6101686102a9366004611b2b565b611493565b600354610123906001600160a01b031681565b6102ca60065481565b604051908152602001610137565b6101686102e6366004611ad9565b611745565b6008546060906000816001600160401b0381111561031957634e487b7160e01b600052604160045260246000fd5b604051908082528060200260200182016040528015610342578160200160208202803683370190505b50905060005b828110156103ee576008818154811061037157634e487b7160e01b600052603260045260246000fd5b90600052602060002001546000146103dc57600881815481106103a457634e487b7160e01b600052603260045260246000fd5b90600052602060002001548282815181106103cf57634e487b7160e01b600052603260045260246000fd5b6020026020010181815250505b806103e681611cbf565b915050610348565b5091505090565b600081815260076020908152604091829020825160e08101845281546001600160a01b03908116825260018301549382019390935260028201549381019390935260038101549182166060840152600160a01b9091046001600160401b03908116608084015260049091015490811660a08301819052600160401b90910460ff16151560c083015261048657600080fd5b80608001518160a0015161049a9190611c3e565b6001600160401b031642116104ae57600080fd5b60c0810151156104bd57600080fd5b6000828152600160209081526040808320338452909152902054806104e157600080fd5b600083815260026020526040902060608301516001600160a01b031633141561084957600061050f8361178a565b9050600061051d84836117b3565b6004805460055460405163a9059cbb60e01b81526001600160a01b039182169381019390935260248301869052929350919091169063a9059cbb90604401602060405180830381600087803b15801561057557600080fd5b505af1158015610589573d6000803e3d6000fd5b505050506040513d601f19601f820116820180604052508101906105ad9190611af3565b5060048054865160405163a9059cbb60e01b81526001600160a01b039182169381019390935260248301849052169063a9059cbb90604401602060405180830381600087803b1580156105ff57600080fd5b505af1158015610613573d6000803e3d6000fd5b505050506040513d601f19601f820116820180604052508101906106379190611af3565b5061064233876117c6565b60005b83548110156108385783818154811061066e57634e487b7160e01b600052603260045260246000fd5b60009182526020909120600290910201546001600160a01b031633148015906106da575060006001600160a01b03168482815481106106bd57634e487b7160e01b600052603260045260246000fd5b60009182526020909120600290910201546001600160a01b031614155b80156107175750600084828154811061070357634e487b7160e01b600052603260045260246000fd5b906000526020600020906002020160010154115b156108265760045484546001600160a01b039091169063a9059cbb9086908490811061075357634e487b7160e01b600052603260045260246000fd5b600091825260209091206002909102015486546001600160a01b039091169087908590811061079257634e487b7160e01b600052603260045260246000fd5b60009182526020909120600160029092020101546040516001600160e01b031960e085901b1681526001600160a01b0390921660048301526024820152604401602060405180830381600087803b1580156107ec57600080fd5b505af1158015610800573d6000803e3d6000fd5b505050506040513d601f19601f820116820180604052508101906108249190611af3565b505b8061083081611cbf565b915050610645565b5061084286611828565b50506109c1565b60005b81548110156109395781818154811061087557634e487b7160e01b600052603260045260246000fd5b60009182526020909120600290910201546001600160a01b0316331480156108e0575060006001600160a01b03168282815481106108c357634e487b7160e01b600052603260045260246000fd5b60009182526020909120600290910201546001600160a01b031614155b156109275781818154811061090557634e487b7160e01b600052603260045260246000fd5b60009182526020822060029091020180546001600160a01b0319168155600101555b8061093181611cbf565b91505061084c565b506004805460405163a9059cbb60e01b81523392810192909252602482018490526001600160a01b03169063a9059cbb90604401602060405180830381600087803b15801561098757600080fd5b505af115801561099b573d6000803e3d6000fd5b505050506040513d601f19601f820116820180604052508101906109bf9190611af3565b505b6000848152600160209081526040808320338085529083528184209390935580518781529182018590528101919091527fb3d88aa294db437f9c0cc5365851482081da58b92ca371a28e48ad433bc73f9f906060015b60405180910390a150505050565b6000546001600160a01b03163314610a3c57600080fd5b6001600160a01b038116610a4f57600080fd5b600580546001600160a01b0319166001600160a01b0392909216919091179055565b6000828152600760209081526040918290208054835160e0810185526001600160a01b03918216815260018301549381019390935260028201549383019390935260038101549283166060830152600160a01b9092046001600160401b039081166080830152600483015490811660a0830152600160401b900460ff16151560c0820152610b0b9060a001516001600160401b0316151590565b610b1457600080fd5b80546001600160a01b0316331415610b2b57600080fd5b6004810154600160401b900460ff1615610b4457600080fd5b6000838152600160209081526040808320338452909152902054829015610b8d576000848152600160209081526040808320338452909152902054610b8a908490611c26565b90505b81600201548111610b9d57600080fd5b60008481526001602090815260408083203380855292528220839055600284018390556003840180546001600160a01b0319169091179055805b600086815260026020526040902054811015610c9f576000868152600260205260409020805433919083908110610c1e57634e487b7160e01b600052603260045260246000fd5b60009182526020909120600290910201546001600160a01b03161415610c8d576000868152600260205260409020805484919083908110610c6f57634e487b7160e01b600052603260045260246000fd5b90600052602060002090600202016001018190555060019150610c9f565b80610c9781611cbf565b915050610bd7565b5080610d02576040805180820182523381526020808201858152600089815260028084529481208054600180820183559183529390912093519290940290920180546001600160a01b0319166001600160a01b0390921691909117815590519101555b600480546040516323b872dd60e01b81526001600160a01b03909116916323b872dd91610d3591339130918a9101611bbe565b602060405180830381600087803b158015610d4f57600080fd5b505af1158015610d63573d6000803e3d6000fd5b505050506040513d601f19601f82011682018060405250810190610d879190611af3565b505050505050565b6000848152600760205260409020600401546001600160401b031615610db457600080fd5b6001600160a01b038116610dc757600080fd5b603c821015610dd557600080fd5b60008311610de257600080fd5b610dec81856119f4565b610df4611a40565b60208082018581526001600160a01b0380851684526001600160401b0342811660a0860190815287821660808701908152600060c088018181528c825260079097526040808220895181549088166001600160a01b03199091161781559651600188810191909155818a0151600289015560608a015160038901805495518816600160a01b026001600160e01b031990961691909816179390931790955591516004909501805496511515600160401b0268ffffffffffffffffff19909716959093169490941794909417905560088054928301815583527ff3f7a9fe364faab93b216da50a3214154f22a0a2b415b23a84c8169e8b636ee3909101879055517f3be02e0edff87111e0ee780fd2368e82e14aa6f149fc35a2e9f5c2a290a6b85291610f3e9188918891889190938452602084019290925260408301521515606082015260800190565b60405180910390a15050505050565b6000546001600160a01b03163314610f6457600080fd5b6001600160a01b038116610f7757600080fd5b600080546001600160a01b0319166001600160a01b0392909216919091179055565b6000546001600160a01b03163314610fb057600080fd5b60c8811115610fbe57600080fd5b600655565b610fcb611a40565b50600081815260076020908152604091829020825160e08101845281546001600160a01b039081168252600183015493820193909352600282015493810193909352600381015491821660608401526001600160401b03600160a01b909204821660808401526004015490811660a083015260ff600160401b90910416151560c08201525b919050565b600081815260076020908152604091829020825160e08101845281546001600160a01b03908116825260018301549382019390935260028201549381019390935260038101549182166060840152600160a01b9091046001600160401b039081166080840152600482015490811660a0840152600160401b900460ff16151560c0830152906110f09060a001516001600160401b0316151590565b6110f957600080fd5b80546001600160a01b031633811461111057600080fd5b6004820154600160401b900460ff166112e4576000838152600260205260408120905b81548110156112e15760006001600160a01b031682828154811061116757634e487b7160e01b600052603260045260246000fd5b60009182526020909120600290910201546001600160a01b0316148015906111c0575060008282815481106111ac57634e487b7160e01b600052603260045260246000fd5b906000526020600020906002020160010154115b156112cf5760045482546001600160a01b039091169063a9059cbb908490849081106111fc57634e487b7160e01b600052603260045260246000fd5b600091825260209091206002909102015484546001600160a01b039091169085908590811061123b57634e487b7160e01b600052603260045260246000fd5b60009182526020909120600160029092020101546040516001600160e01b031960e085901b1681526001600160a01b0390921660048301526024820152604401602060405180830381600087803b15801561129557600080fd5b505af11580156112a9573d6000803e3d6000fd5b505050506040513d601f19601f820116820180604052508101906112cd9190611af3565b505b806112d981611cbf565b915050611133565b50505b6112ed83611828565b6112f781846117c6565b6040518381527f2809c7e17bf978fbc7194c0a694b638c4215e9140cacc6c38ca36010b45697df9060200160405180910390a1505050565b6000838152600760205260409020600401546001600160401b03161561135457600080fd5b6000821161136157600080fd5b6001600160a01b03811661137457600080fd5b61137e81846119f4565b611386611a40565b60208082018481526001600160a01b0380851684526001600160401b0342811660a08601908152600160c0870181815260008b815260079097526040808820895181549088166001600160a01b0319909116178155965187840155808901516002880155606089015160038801805460808c01518816600160a01b026001600160e01b031990911692909816919091179690961790955591516004909501805492511515600160401b0268ffffffffffffffffff199093169590931694909417179055517f3be02e0edff87111e0ee780fd2368e82e14aa6f149fc35a2e9f5c2a290a6b85292610a1792889288929190938452602084019290925260408301521515606082015260800190565b6000828152600760209081526040918290208054835160e0810185526001600160a01b03918216815260018301549381019390935260028201549383019390935260038101549283166060830152600160a01b9092046001600160401b039081166080830152600483015490811660a0830152600160401b900460ff16151560c082015261152d9060a001516001600160401b0316151590565b61153657600080fd5b80546001600160a01b031633141561154d57600080fd5b6004810154600160401b900460ff16151560011461156a57600080fd5b818160010154111561157b57600080fd5b60006115868361178a565b9050600061159484836117b3565b600480546005546040516323b872dd60e01b81529394506001600160a01b03918216936323b872dd936115cd9333931691889101611bbe565b602060405180830381600087803b1580156115e757600080fd5b505af11580156115fb573d6000803e3d6000fd5b505050506040513d601f19601f8201168201806040525081019061161f9190611af3565b506004805484546040516323b872dd60e01b81526001600160a01b03928316936323b872dd93611656933393911691879101611bbe565b602060405180830381600087803b15801561167057600080fd5b505af1158015611684573d6000803e3d6000fd5b505050506040513d601f19601f820116820180604052508101906116a89190611af3565b506116b333866117c6565b600085815260076020908152604080832080546001600160a01b03191681556001810184905560028101939093556003830180546001600160e01b03191690556004909201805468ffffffffffffffffff19169055815187815290810186905233918101919091527fde6ba10d5cf5628a5dc8601833c2a341329e77354491ba6bed565862a45fc5b290606001610f3e565b6000546001600160a01b0316331461175c57600080fd5b6001600160a01b0381161561178757600080546001600160a01b0319166001600160a01b0383161790555b50565b60006117ad6103e86117a760065485611a2890919063ffffffff16565b90611a34565b92915050565b60006117bf8284611ca8565b9392505050565b6003546040516323b872dd60e01b81526001600160a01b03909116906323b872dd906117fa90309086908690600401611bbe565b600060405180830381600087803b15801561181457600080fd5b505af1158015610d87573d6000803e3d6000fd5b60005b60008281526002602052604090205481101561190657600082815260026020526040812080548390811061186f57634e487b7160e01b600052603260045260246000fd5b60009182526020909120600290910201546001600160a01b0316146118f4576000828152600160209081526040808320600290925282208054839190859081106118c957634e487b7160e01b600052603260045260246000fd5b600091825260208083206002909202909101546001600160a01b031683528201929092526040019020555b806118fe81611cbf565b91505061182b565b5060005b60085481101561198a57816008828154811061193657634e487b7160e01b600052603260045260246000fd5b90600052602060002001541415611978576008818154811061196857634e487b7160e01b600052603260045260246000fd5b600091825260208220015561198a565b8061198281611cbf565b91505061190a565b5060008181526002602052604081206119a291611a7c565b600090815260076020526040812080546001600160a01b03191681556001810182905560028101919091556003810180546001600160e01b0319169055600401805468ffffffffffffffffff19169055565b6003546040516323b872dd60e01b81526001600160a01b03909116906323b872dd906117fa90859030908690600401611bbe565b60006117bf8284611c89565b60006117bf8284611c69565b6040805160e081018252600080825260208201819052918101829052606081018290526080810182905260a0810182905260c081019190915290565b508054600082556002029060005260206000209081019061178791905b80821115611abe5780546001600160a01b031916815560006001820155600201611a99565b5090565b80356001600160a01b038116811461105057600080fd5b600060208284031215611aea578081fd5b6117bf82611ac2565b600060208284031215611b04578081fd5b815180151581146117bf578182fd5b600060208284031215611b24578081fd5b5035919050565b60008060408385031215611b3d578081fd5b50508035926020909101359150565b600080600060608486031215611b60578081fd5b8335925060208401359150611b7760408501611ac2565b90509250925092565b60008060008060808587031215611b95578081fd5b843593506020850135925060408501359150611bb360608601611ac2565b905092959194509250565b6001600160a01b039384168152919092166020820152604081019190915260600190565b6020808252825182820181905260009190848201906040850190845b81811015611c1a57835183529284019291840191600101611bfe565b50909695505050505050565b60008219821115611c3957611c39611cda565b500190565b60006001600160401b03808316818516808303821115611c6057611c60611cda565b01949350505050565b600082611c8457634e487b7160e01b81526012600452602481fd5b500490565b6000816000190483118215151615611ca357611ca3611cda565b500290565b600082821015611cba57611cba611cda565b500390565b6000600019821415611cd357611cd3611cda565b5060010190565b634e487b7160e01b600052601160045260246000fdfea264697066735822122073d5d5b651fe59d2d60f3d1038d965cee91f82e7ee4d5099d7db48e23634543b64736f6c63430008030033",
  "devdoc": {
    "kind": "dev",
    "methods": {
      "cancelAuction(uint256)": {
        "details": "Cancels an auction that hasn't been won yet."
      },
      "createAuction(uint256,uint256,uint256,address)": {
        "details": "Creates and begins a new auction."
      },
      "createFixed(uint256,uint256,address)": {
        "details": "Creates and begins a new"
      },
      "transferOwnership(address)": {
        "details": "Allows the current owner to transfer control of the contract to a newOwner.",
        "params": {
          "newOwner": "The address to transfer ownership to."
        }
      }
    },
    "version": 1
  },
  "userdoc": {
    "kind": "user",
    "methods": {},
    "version": 1
  },
  "storageLayout": {
    "storage": [
      {
        "astId": 5863,
        "contract": "contracts/NftAuction.sol:NftAuction",
        "label": "owner",
        "offset": 0,
        "slot": "0",
        "type": "t_address"
      },
      {
        "astId": 4659,
        "contract": "contracts/NftAuction.sol:NftAuction",
        "label": "addressToBid",
        "offset": 0,
        "slot": "1",
        "type": "t_mapping(t_uint256,t_mapping(t_address,t_uint256))"
      },
      {
        "astId": 4665,
        "contract": "contracts/NftAuction.sol:NftAuction",
        "label": "bids",
        "offset": 0,
        "slot": "2",
        "type": "t_mapping(t_uint256,t_array(t_struct(Bid)4670_storage)dyn_storage)"
      },
      {
        "astId": 4673,
        "contract": "contracts/NftAuction.sol:NftAuction",
        "label": "nonFungibleContract",
        "offset": 0,
        "slot": "3",
        "type": "t_contract(ERC721)3584"
      },
      {
        "astId": 4676,
        "contract": "contracts/NftAuction.sol:NftAuction",
        "label": "myToken",
        "offset": 0,
        "slot": "4",
        "type": "t_contract(ERC20)3508"
      },
      {
        "astId": 4678,
        "contract": "contracts/NftAuction.sol:NftAuction",
        "label": "minter",
        "offset": 0,
        "slot": "5",
        "type": "t_address"
      },
      {
        "astId": 4680,
        "contract": "contracts/NftAuction.sol:NftAuction",
        "label": "fee",
        "offset": 0,
        "slot": "6",
        "type": "t_uint256"
      },
      {
        "astId": 4685,
        "contract": "contracts/NftAuction.sol:NftAuction",
        "label": "tokenIdToAuction",
        "offset": 0,
        "slot": "7",
        "type": "t_mapping(t_uint256,t_struct(Auction)4653_storage)"
      },
      {
        "astId": 4688,
        "contract": "contracts/NftAuction.sol:NftAuction",
        "label": "tokenIds",
        "offset": 0,
        "slot": "8",
        "type": "t_array(t_uint256)dyn_storage"
      },
      {
        "astId": 4690,
        "contract": "contracts/NftAuction.sol:NftAuction",
        "label": "auctionCounts",
        "offset": 0,
        "slot": "9",
        "type": "t_uint256"
      }
    ],
    "types": {
      "t_address": {
        "encoding": "inplace",
        "label": "address",
        "numberOfBytes": "20"
      },
      "t_array(t_struct(Bid)4670_storage)dyn_storage": {
        "base": "t_struct(Bid)4670_storage",
        "encoding": "dynamic_array",
        "label": "struct NftAuction.Bid[]",
        "numberOfBytes": "32"
      },
      "t_array(t_uint256)dyn_storage": {
        "base": "t_uint256",
        "encoding": "dynamic_array",
        "label": "uint256[]",
        "numberOfBytes": "32"
      },
      "t_bool": {
        "encoding": "inplace",
        "label": "bool",
        "numberOfBytes": "1"
      },
      "t_contract(ERC20)3508": {
        "encoding": "inplace",
        "label": "contract ERC20",
        "numberOfBytes": "20"
      },
      "t_contract(ERC721)3584": {
        "encoding": "inplace",
        "label": "contract ERC721",
        "numberOfBytes": "20"
      },
      "t_mapping(t_address,t_uint256)": {
        "encoding": "mapping",
        "key": "t_address",
        "label": "mapping(address => uint256)",
        "numberOfBytes": "32",
        "value": "t_uint256"
      },
      "t_mapping(t_uint256,t_array(t_struct(Bid)4670_storage)dyn_storage)": {
        "encoding": "mapping",
        "key": "t_uint256",
        "label": "mapping(uint256 => struct NftAuction.Bid[])",
        "numberOfBytes": "32",
        "value": "t_array(t_struct(Bid)4670_storage)dyn_storage"
      },
      "t_mapping(t_uint256,t_mapping(t_address,t_uint256))": {
        "encoding": "mapping",
        "key": "t_uint256",
        "label": "mapping(uint256 => mapping(address => uint256))",
        "numberOfBytes": "32",
        "value": "t_mapping(t_address,t_uint256)"
      },
      "t_mapping(t_uint256,t_struct(Auction)4653_storage)": {
        "encoding": "mapping",
        "key": "t_uint256",
        "label": "mapping(uint256 => struct NftAuction.Auction)",
        "numberOfBytes": "32",
        "value": "t_struct(Auction)4653_storage"
      },
      "t_struct(Auction)4653_storage": {
        "encoding": "inplace",
        "label": "struct NftAuction.Auction",
        "members": [
          {
            "astId": 4640,
            "contract": "contracts/NftAuction.sol:NftAuction",
            "label": "seller",
            "offset": 0,
            "slot": "0",
            "type": "t_address"
          },
          {
            "astId": 4642,
            "contract": "contracts/NftAuction.sol:NftAuction",
            "label": "startingPrice",
            "offset": 0,
            "slot": "1",
            "type": "t_uint256"
          },
          {
            "astId": 4644,
            "contract": "contracts/NftAuction.sol:NftAuction",
            "label": "highestBidAmount",
            "offset": 0,
            "slot": "2",
            "type": "t_uint256"
          },
          {
            "astId": 4646,
            "contract": "contracts/NftAuction.sol:NftAuction",
            "label": "highestBidder",
            "offset": 0,
            "slot": "3",
            "type": "t_address"
          },
          {
            "astId": 4648,
            "contract": "contracts/NftAuction.sol:NftAuction",
            "label": "duration",
            "offset": 20,
            "slot": "3",
            "type": "t_uint64"
          },
          {
            "astId": 4650,
            "contract": "contracts/NftAuction.sol:NftAuction",
            "label": "startedAt",
            "offset": 0,
            "slot": "4",
            "type": "t_uint64"
          },
          {
            "astId": 4652,
            "contract": "contracts/NftAuction.sol:NftAuction",
            "label": "isFixed",
            "offset": 8,
            "slot": "4",
            "type": "t_bool"
          }
        ],
        "numberOfBytes": "160"
      },
      "t_struct(Bid)4670_storage": {
        "encoding": "inplace",
        "label": "struct NftAuction.Bid",
        "members": [
          {
            "astId": 4667,
            "contract": "contracts/NftAuction.sol:NftAuction",
            "label": "bidder",
            "offset": 0,
            "slot": "0",
            "type": "t_address"
          },
          {
            "astId": 4669,
            "contract": "contracts/NftAuction.sol:NftAuction",
            "label": "amount",
            "offset": 0,
            "slot": "1",
            "type": "t_uint256"
          }
        ],
        "numberOfBytes": "64"
      },
      "t_uint256": {
        "encoding": "inplace",
        "label": "uint256",
        "numberOfBytes": "32"
      },
      "t_uint64": {
        "encoding": "inplace",
        "label": "uint64",
        "numberOfBytes": "8"
      }
    }
  }
}